{
  "contractName": "Lender",
  "abi": [
    {
      "inputs": [
        {
          "internalType": "uint256",
          "name": "_currentRate",
          "type": "uint256"
        }
      ],
      "stateMutability": "payable",
      "type": "constructor",
      "payable": true
    },
    {
      "inputs": [],
      "name": "fundContract",
      "outputs": [],
      "stateMutability": "payable",
      "type": "function",
      "payable": true
    },
    {
      "inputs": [
        {
          "internalType": "uint256",
          "name": "amount",
          "type": "uint256"
        }
      ],
      "name": "getContractFunds",
      "outputs": [],
      "stateMutability": "payable",
      "type": "function",
      "payable": true
    },
    {
      "inputs": [
        {
          "internalType": "uint256",
          "name": "_amount",
          "type": "uint256"
        }
      ],
      "name": "requestLoan",
      "outputs": [],
      "stateMutability": "nonpayable",
      "type": "function"
    },
    {
      "inputs": [
        {
          "internalType": "uint256",
          "name": "_loanId",
          "type": "uint256"
        }
      ],
      "name": "acceptLoan",
      "outputs": [],
      "stateMutability": "nonpayable",
      "type": "function"
    },
    {
      "inputs": [
        {
          "internalType": "uint256",
          "name": "_loanId",
          "type": "uint256"
        }
      ],
      "name": "denyLoan",
      "outputs": [],
      "stateMutability": "nonpayable",
      "type": "function"
    },
    {
      "inputs": [
        {
          "internalType": "uint256",
          "name": "_loanId",
          "type": "uint256"
        }
      ],
      "name": "repayLoan",
      "outputs": [],
      "stateMutability": "payable",
      "type": "function",
      "payable": true
    },
    {
      "inputs": [],
      "name": "getContractBalance",
      "outputs": [
        {
          "internalType": "uint256",
          "name": "",
          "type": "uint256"
        }
      ],
      "stateMutability": "view",
      "type": "function",
      "constant": true
    },
    {
      "inputs": [],
      "name": "getManager",
      "outputs": [
        {
          "internalType": "address",
          "name": "",
          "type": "address"
        }
      ],
      "stateMutability": "view",
      "type": "function",
      "constant": true
    },
    {
      "inputs": [],
      "name": "getCurrentRate",
      "outputs": [
        {
          "internalType": "uint256",
          "name": "",
          "type": "uint256"
        }
      ],
      "stateMutability": "view",
      "type": "function",
      "constant": true
    },
    {
      "inputs": [],
      "name": "getRequestsIds",
      "outputs": [
        {
          "internalType": "uint256[]",
          "name": "",
          "type": "uint256[]"
        }
      ],
      "stateMutability": "view",
      "type": "function",
      "constant": true
    },
    {
      "inputs": [
        {
          "internalType": "uint256",
          "name": "_loanId",
          "type": "uint256"
        }
      ],
      "name": "getLoan",
      "outputs": [
        {
          "components": [
            {
              "internalType": "uint256",
              "name": "id",
              "type": "uint256"
            },
            {
              "internalType": "address payable",
              "name": "borrower",
              "type": "address"
            },
            {
              "internalType": "uint256",
              "name": "amount",
              "type": "uint256"
            },
            {
              "internalType": "uint256",
              "name": "leftToBePaid",
              "type": "uint256"
            },
            {
              "internalType": "uint256",
              "name": "rate",
              "type": "uint256"
            },
            {
              "internalType": "bool",
              "name": "exists",
              "type": "bool"
            },
            {
              "internalType": "enum Lender.LoanStates",
              "name": "status",
              "type": "uint8"
            }
          ],
          "internalType": "struct Lender.Loan",
          "name": "",
          "type": "tuple"
        }
      ],
      "stateMutability": "view",
      "type": "function",
      "constant": true
    },
    {
      "inputs": [],
      "name": "getUserLoans",
      "outputs": [
        {
          "components": [
            {
              "internalType": "uint256",
              "name": "id",
              "type": "uint256"
            },
            {
              "internalType": "address payable",
              "name": "borrower",
              "type": "address"
            },
            {
              "internalType": "uint256",
              "name": "amount",
              "type": "uint256"
            },
            {
              "internalType": "uint256",
              "name": "leftToBePaid",
              "type": "uint256"
            },
            {
              "internalType": "uint256",
              "name": "rate",
              "type": "uint256"
            },
            {
              "internalType": "bool",
              "name": "exists",
              "type": "bool"
            },
            {
              "internalType": "enum Lender.LoanStates",
              "name": "status",
              "type": "uint8"
            }
          ],
          "internalType": "struct Lender.Loan[]",
          "name": "",
          "type": "tuple[]"
        }
      ],
      "stateMutability": "view",
      "type": "function",
      "constant": true
    },
    {
      "inputs": [
        {
          "internalType": "uint256",
          "name": "_newRate",
          "type": "uint256"
        }
      ],
      "name": "setCurrentRate",
      "outputs": [],
      "stateMutability": "nonpayable",
      "type": "function"
    }
  ],
  "bytecode": "0x608060405260006004556040516200185b3803806200185b83398181016040528101906200002e919062000094565b33600560006101000a81548173ffffffffffffffffffffffffffffffffffffffff021916908373ffffffffffffffffffffffffffffffffffffffff1602179055508060038190555050620000e4565b6000815190506200008e81620000ca565b92915050565b600060208284031215620000a757600080fd5b6000620000b7848285016200007d565b91505092915050565b6000819050919050565b620000d581620000c0565b8114620000e157600080fd5b50565b61176780620000f46000396000f3fe6080604052600436106100c25760003560e01c806399b954621161007f578063bd097e2111610059578063bd097e2114610236578063d500958414610240578063f7fb07b01461026b578063fd70a01c14610296576100c2565b806399b95462146101c6578063ab7b1c89146101f1578063adfbe22f1461020d576100c2565b80630b5f2efd146100c757806337a6de78146100f0578063504006ca146101195780636f9fb98a146101565780636fae807d146101815780638d5d34291461019d575b600080fd5b3480156100d357600080fd5b506100ee60048036038101906100e99190611102565b6102c1565b005b3480156100fc57600080fd5b5061011760048036038101906101129190611102565b61035b565b005b34801561012557600080fd5b50610140600480360381019061013b9190611102565b61043c565b60405161014d91906115cc565b60405180910390f35b34801561016257600080fd5b5061016b610590565b60405161017891906115e7565b60405180910390f35b61019b60048036038101906101969190611102565b610598565b005b3480156101a957600080fd5b506101c460048036038101906101bf9190611102565b610684565b005b3480156101d257600080fd5b506101db610867565b6040516101e891906114e8565b60405180910390f35b61020b60048036038101906102069190611102565b610a81565b005b34801561021957600080fd5b50610234600480360381019061022f9190611102565b610ca0565b005b61023e610e69565b005b34801561024c57600080fd5b50610255610efb565b60405161026291906114cd565b60405180910390f35b34801561027757600080fd5b50610280610f25565b60405161028d91906115e7565b60405180910390f35b3480156102a257600080fd5b506102ab610f2f565b6040516102b8919061150a565b60405180910390f35b600560009054906101000a900473ffffffffffffffffffffffffffffffffffffffff1673ffffffffffffffffffffffffffffffffffffffff163373ffffffffffffffffffffffffffffffffffffffff1614610351576040517f08c379a00000000000000000000000000000000000000000000000000000000081526004016103489061154c565b60405180910390fd5b8060038190555050565b600560009054906101000a900473ffffffffffffffffffffffffffffffffffffffff1673ffffffffffffffffffffffffffffffffffffffff163373ffffffffffffffffffffffffffffffffffffffff16146103eb576040517f08c379a00000000000000000000000000000000000000000000000000000000081526004016103e29061154c565b60405180910390fd5b60006103f682610f87565b9050600260008084815260200190815260200160002060050160016101000a81548160ff0219169083600381111561042a57fe5b021790555061043881611012565b5050565b61044461108d565b60008083815260200190815260200160002060050160009054906101000a900460ff166104a6576040517f08c379a000000000000000000000000000000000000000000000000000000000815260040161049d9061158c565b60405180910390fd5b6000808381526020019081526020016000206040518060e0016040529081600082015481526020016001820160009054906101000a900473ffffffffffffffffffffffffffffffffffffffff1673ffffffffffffffffffffffffffffffffffffffff1673ffffffffffffffffffffffffffffffffffffffff1681526020016002820154815260200160038201548152602001600482015481526020016005820160009054906101000a900460ff161515151581526020016005820160019054906101000a900460ff16600381111561057a57fe5b600381111561058557fe5b815250509050919050565b600047905090565b600560009054906101000a900473ffffffffffffffffffffffffffffffffffffffff1673ffffffffffffffffffffffffffffffffffffffff163373ffffffffffffffffffffffffffffffffffffffff1614610628576040517f08c379a000000000000000000000000000000000000000000000000000000000815260040161061f9061154c565b60405180910390fd5b47811115610634574790505b60003390508073ffffffffffffffffffffffffffffffffffffffff166108fc839081150290604051600060405180830381858888f1935050505015801561067f573d6000803e3d6000fd5b505050565b600061068e611071565b9050600060646003546064018402816106a357fe5b04905060006040518060e001604052808481526020013373ffffffffffffffffffffffffffffffffffffffff1681526020018581526020018381526020016003548152602001600115158152602001600060038111156106ff57fe5b81525090506002839080600181540180825580915050600190039060005260206000200160009091909190915055600160003373ffffffffffffffffffffffffffffffffffffffff1673ffffffffffffffffffffffffffffffffffffffff168152602001908152602001600020839080600181540180825580915050600190039060005260206000200160009091909190915055806000808581526020019081526020016000206000820151816000015560208201518160010160006101000a81548173ffffffffffffffffffffffffffffffffffffffff021916908373ffffffffffffffffffffffffffffffffffffffff16021790555060408201518160020155606082015181600301556080820151816004015560a08201518160050160006101000a81548160ff02191690831515021790555060c08201518160050160016101000a81548160ff0219169083600381111561085957fe5b021790555090505050505050565b60606000600160003373ffffffffffffffffffffffffffffffffffffffff1673ffffffffffffffffffffffffffffffffffffffff1681526020019081526020016000208054806020026020016040519081016040528092919081815260200182805480156108f457602002820191906000526020600020905b8154815260200190600101908083116108e0575b505050505090506000815167ffffffffffffffff8111801561091557600080fd5b5060405190808252806020026020018201604052801561094f57816020015b61093c61108d565b8152602001906001900390816109345790505b50905060005b8251811015610a785760008084838151811061096d57fe5b602002602001015181526020019081526020016000206040518060e0016040529081600082015481526020016001820160009054906101000a900473ffffffffffffffffffffffffffffffffffffffff1673ffffffffffffffffffffffffffffffffffffffff1673ffffffffffffffffffffffffffffffffffffffff1681526020016002820154815260200160038201548152602001600482015481526020016005820160009054906101000a900460ff161515151581526020016005820160019054906101000a900460ff166003811115610a4557fe5b6003811115610a5057fe5b81525050828281518110610a6057fe5b60200260200101819052508080600101915050610955565b50809250505090565b8060008082815260200190815260200160002060050160009054906101000a900460ff16610ae4576040517f08c379a0000000000000000000000000000000000000000000000000000000008152600401610adb9061158c565b60405180910390fd5b60008060008381526020019081526020016000206003015411610b3c576040517f08c379a0000000000000000000000000000000000000000000000000000000008152600401610b33906115ac565b60405180910390fd5b34600080848152602001908152602001600020600301541015610c145760008060008481526020019081526020016000206003015434039050600080600085815260200190815260200160002060030181905550600360008085815260200190815260200160002060050160016101000a81548160ff02191690836003811115610bc257fe5b02179055503373ffffffffffffffffffffffffffffffffffffffff166108fc829081150290604051600060405180830381858888f19350505050158015610c0d573d6000803e3d6000fd5b5050610c9c565b346000808481526020019081526020016000206003015403600080848152602001908152602001600020600301819055506000806000848152602001908152602001600020600301541415610c9b57600360008084815260200190815260200160002060050160016101000a81548160ff02191690836003811115610c9557fe5b02179055505b5b5050565b600560009054906101000a900473ffffffffffffffffffffffffffffffffffffffff1673ffffffffffffffffffffffffffffffffffffffff163373ffffffffffffffffffffffffffffffffffffffff1614610d30576040517f08c379a0000000000000000000000000000000000000000000000000000000008152600401610d279061154c565b60405180910390fd5b6000610d3b82610f87565b9050600080838152602001908152602001600020600201544711610d94576040517f08c379a0000000000000000000000000000000000000000000000000000000008152600401610d8b9061152c565b60405180910390fd5b600160008084815260200190815260200160002060050160016101000a81548160ff02191690836003811115610dc657fe5b021790555060008083815260200190815260200160002060010160009054906101000a900473ffffffffffffffffffffffffffffffffffffffff1673ffffffffffffffffffffffffffffffffffffffff166108fc600080858152602001908152602001600020600201549081150290604051600060405180830381858888f19350505050158015610e5b573d6000803e3d6000fd5b50610e6581611012565b5050565b600560009054906101000a900473ffffffffffffffffffffffffffffffffffffffff1673ffffffffffffffffffffffffffffffffffffffff163373ffffffffffffffffffffffffffffffffffffffff1614610ef9576040517f08c379a0000000000000000000000000000000000000000000000000000000008152600401610ef09061154c565b60405180910390fd5b565b6000600560009054906101000a900473ffffffffffffffffffffffffffffffffffffffff16905090565b6000600354905090565b60606002805480602002602001604051908101604052809291908181526020018280548015610f7d57602002820191906000526020600020905b815481526020019060010190808311610f69575b5050505050905090565b600080600090505b600280549050811015610fd1578260028281548110610faa57fe5b90600052602060002001541415610fc4578091505061100d565b8080600101915050610f8f565b506040517f08c379a00000000000000000000000000000000000000000000000000000000081526004016110049061156c565b60405180910390fd5b919050565b60026001600280549050038154811061102757fe5b90600052602060002001546002828154811061103f57fe5b9060005260206000200181905550600280548061105857fe5b6001900381819060005260206000200160009055905550565b6000600460008154809291906001019190505550600454905090565b6040518060e0016040528060008152602001600073ffffffffffffffffffffffffffffffffffffffff168152602001600081526020016000815260200160008152602001600015158152602001600060038111156110e757fe5b81525090565b6000813590506110fc8161171a565b92915050565b60006020828403121561111457600080fd5b6000611122848285016110ed565b91505092915050565b60006111378383611393565b60e08301905092915050565b600061114f83836114af565b60208301905092915050565b61116481611697565b82525050565b61117381611685565b82525050565b600061118482611622565b61118e8185611652565b935061119983611602565b8060005b838110156111ca5781516111b1888261112b565b97506111bc83611638565b92505060018101905061119d565b5085935050505092915050565b60006111e28261162d565b6111ec8185611663565b93506111f783611612565b8060005b8381101561122857815161120f8882611143565b975061121a83611645565b9250506001810190506111fb565b5085935050505092915050565b61123e816116a9565b82525050565b61124d816116f2565b82525050565b6000611260601d83611674565b91507f4e6f7420656e6f7567682066756e647320696e20636f6e74726163742e0000006000830152602082019050919050565b60006112a0601c83611674565b91507f6d73672e73656e646572206973206e6f7420746865206f776e65722e000000006000830152602082019050919050565b60006112e0601183611674565b91507f6c6f616e4964206e6f7420666f756e642e0000000000000000000000000000006000830152602082019050919050565b6000611320601583611674565b91507f4c6f616e20646f6573206e6f74206578697374732e00000000000000000000006000830152602082019050919050565b6000611360601d83611674565b91507f4c6f616e2068617320616c7265616479206265656e207265706169642e0000006000830152602082019050919050565b60e0820160008201516113a960008501826114af565b5060208201516113bc602085018261115b565b5060408201516113cf60408501826114af565b5060608201516113e260608501826114af565b5060808201516113f560808501826114af565b5060a082015161140860a0850182611235565b5060c082015161141b60c0850182611244565b50505050565b60e08201600082015161143760008501826114af565b50602082015161144a602085018261115b565b50604082015161145d60408501826114af565b50606082015161147060608501826114af565b50608082015161148360808501826114af565b5060a082015161149660a0850182611235565b5060c08201516114a960c0850182611244565b50505050565b6114b8816116e8565b82525050565b6114c7816116e8565b82525050565b60006020820190506114e2600083018461116a565b92915050565b600060208201905081810360008301526115028184611179565b905092915050565b6000602082019050818103600083015261152481846111d7565b905092915050565b6000602082019050818103600083015261154581611253565b9050919050565b6000602082019050818103600083015261156581611293565b9050919050565b60006020820190508181036000830152611585816112d3565b9050919050565b600060208201905081810360008301526115a581611313565b9050919050565b600060208201905081810360008301526115c581611353565b9050919050565b600060e0820190506115e16000830184611421565b92915050565b60006020820190506115fc60008301846114be565b92915050565b6000819050602082019050919050565b6000819050602082019050919050565b600081519050919050565b600081519050919050565b6000602082019050919050565b6000602082019050919050565b600082825260208201905092915050565b600082825260208201905092915050565b600082825260208201905092915050565b6000611690826116c8565b9050919050565b60006116a2826116c8565b9050919050565b60008115159050919050565b60008190506116c382611706565b919050565b600073ffffffffffffffffffffffffffffffffffffffff82169050919050565b6000819050919050565b60006116fd826116b5565b9050919050565bfe5b6004811061171757611716611704565b5b50565b611723816116e8565b811461172e57600080fd5b5056fea264697066735822122053fe62b5ea1dd416b309cd8b2bd06872a04de523091b34e9ef400e03e12109bd64736f6c63430007060033",
  "immutableReferences": {},
  "source": "// SPDX-License-Identifier: GPL-3.0\r\n\r\npragma solidity >=0.7.0 <0.8.0;\r\npragma experimental ABIEncoderV2;\r\n\r\n/**\r\n * @title Lender\r\n * @dev Allows people to borrow money from a lender.\r\n */\r\n\r\ncontract Lender {\r\n    enum LoanStates {\r\n        Requested,\r\n        Granted,\r\n        Denied,\r\n        PaidBack\r\n    }\r\n    \r\n    struct Loan {\r\n        uint id;\r\n        address payable borrower;\r\n        uint amount;\r\n        uint leftToBePaid;\r\n        uint rate;\r\n        bool exists;\r\n        LoanStates status;\r\n    }\r\n    \r\n    mapping (uint => Loan) idToLoan;\r\n    mapping (address => uint[]) clientToLoansId;\r\n    uint[] requestIds;\r\n    uint currentRate;\r\n    uint uniqueIdCounter = 0;\r\n    address manager;\r\n\r\n    constructor(uint _currentRate) payable {\r\n        manager = msg.sender;\r\n        currentRate = _currentRate;\r\n    }\r\n    \r\n    /**\r\n     * @dev Solidity does not supports natively the removal of a specific index. This methods safely do that in only two instructions.\r\n    */\r\n    function safeDeleteRequestIds(uint idIndex) private {\r\n        requestIds[idIndex] = requestIds[requestIds.length - 1];\r\n        requestIds.pop();\r\n    }\r\n    \r\n    /**\r\n     * @dev Can be called to fund the contract by providing value in the transaction\r\n    */\r\n    function fundContract() public payable isOwner {}\r\n    \r\n    /**\r\n     * @dev Can be called to retrieve funds from the contract to the owner\r\n    */\r\n    function getContractFunds(uint amount) public payable isOwner {\r\n        if(amount > address(this).balance) amount = address(this).balance;\r\n        address payable owner = msg.sender;\r\n        owner.transfer(amount);\r\n    }\r\n    \r\n    /**\r\n     * @dev Used to generate a unique id for each new Lend\r\n    */\r\n    function generateUniqueId() private returns(uint) {\r\n        uniqueIdCounter++;\r\n        return uniqueIdCounter;\r\n    }\r\n    \r\n    /**\r\n     * @dev Allow someone to request a loan\r\n    */\r\n    function requestLoan(uint _amount) public {\r\n        uint newId = generateUniqueId();\r\n        uint leftToBePaid = (_amount*(100+currentRate))/100;\r\n        \r\n        Loan memory newLoanRequest = Loan(\r\n            newId,\r\n            msg.sender,\r\n            _amount,\r\n            leftToBePaid,\r\n            currentRate,\r\n            true,\r\n            LoanStates.Requested\r\n        );\r\n        \r\n        requestIds.push(newId);\r\n        clientToLoansId[msg.sender].push(newId);\r\n        idToLoan[newId] = newLoanRequest;\r\n    }\r\n    \r\n    /**\r\n     * @dev Allow the contract owner to accept a loan, transfers funds to the borrower if so\r\n    */\r\n    function acceptLoan(uint _loanId) public isOwner {\r\n        uint index = findRequestIdOrRevert(_loanId);\r\n        require(address(this).balance > idToLoan[_loanId].amount, \"Not enough funds in contract.\");\r\n        idToLoan[_loanId].status = LoanStates.Granted;\r\n        idToLoan[_loanId].borrower.transfer(idToLoan[_loanId].amount);\r\n        safeDeleteRequestIds(index);\r\n    }\r\n    \r\n    /**\r\n     * @dev Allow the contract owner to deny a loan\r\n    */\r\n    function denyLoan(uint _loanId) public isOwner {\r\n        uint index = findRequestIdOrRevert(_loanId);\r\n        idToLoan[_loanId].status = LoanStates.Denied;\r\n        safeDeleteRequestIds(index);\r\n        return;\r\n    }\r\n    \r\n    /**\r\n     * @dev This function can find a specific request id in the requestIds array. Used to find if a request exists and if so, its position.\r\n    */\r\n    function findRequestIdOrRevert(uint _loanId) private view returns(uint) {\r\n        for (uint i=0; i<requestIds.length; i++) {\r\n            if(requestIds[i] == _loanId) {\r\n                return i;\r\n            }\r\n        }\r\n        revert(\"loanId not found.\");\r\n    }\r\n    \r\n    /**\r\n     * @dev Can be called by a borrower to repay its lend. Borrower must provide funds when calling this function.\r\n    */\r\n    function repayLoan(uint _loanId) public payable isActiveLoan(_loanId) {\r\n        if(idToLoan[_loanId].leftToBePaid < msg.value) {\r\n            uint toRefund = msg.value - idToLoan[_loanId].leftToBePaid;\r\n            idToLoan[_loanId].leftToBePaid = 0;\r\n            idToLoan[_loanId].status = LoanStates.PaidBack;\r\n            msg.sender.transfer(toRefund);\r\n        }\r\n        else {\r\n            idToLoan[_loanId].leftToBePaid = idToLoan[_loanId].leftToBePaid - msg.value;\r\n            if(idToLoan[_loanId].leftToBePaid == 0) {\r\n                idToLoan[_loanId].status = LoanStates.PaidBack;\r\n            }\r\n        }\r\n        return;\r\n    }\r\n        \r\n    // MODIFIERS\r\n    modifier isOwner() {\r\n        require(msg.sender == manager, \"msg.sender is not the owner.\");\r\n        _;\r\n    }\r\n    \r\n    modifier isActiveLoan(uint _loanId) {\r\n        require(idToLoan[_loanId].exists, \"Loan does not exists.\");\r\n        require(idToLoan[_loanId].leftToBePaid > 0, \"Loan has already been repaid.\");\r\n        _;\r\n    }\r\n    \r\n    // GETTERS\r\n    function getContractBalance() public view returns(uint) {\r\n        return address(this).balance;\r\n    }\r\n    \r\n    function getManager() public view returns(address) {\r\n        return manager;\r\n    }\r\n    \r\n    function getCurrentRate() public view returns(uint) {\r\n        return currentRate;\r\n    }\r\n    \r\n    function getRequestsIds() public view returns(uint[] memory) {\r\n        return requestIds;\r\n    }\r\n    \r\n    function getLoan(uint _loanId) public view returns(Loan memory) {\r\n        require(idToLoan[_loanId].exists, \"Loan does not exists.\");\r\n        return idToLoan[_loanId];\r\n    }\r\n\r\n    function getUserLoans() public view returns(Loan[] memory) {\r\n        uint[] memory userLoanIds = clientToLoansId[msg.sender];\r\n        Loan[] memory userLoans = new Loan[](userLoanIds.length);\r\n        \r\n        for(uint i = 0; i < userLoanIds.length; i++) {\r\n            userLoans[i] = idToLoan[userLoanIds[i]];\r\n        }\r\n        return userLoans;\r\n    }\r\n    \r\n    // SETTERS\r\n    function setCurrentRate(uint _newRate) public isOwner {\r\n        currentRate = _newRate;\r\n    }\r\n}",
  "sourcePath": "C:/xampp/htdocs/lender/contracts/Lender.sol",
  "compiler": {
    "name": "solc",
    "version": "0.7.6+commit.7338295f.Emscripten.clang"
  },
  "schemaVersion": "3.3.4",
  "updatedAt": "2021-03-04T21:24:09.585Z",
  "networkType": "ethereum",
  "devdoc": {
    "details": "Allows people to borrow money from a lender.",
    "kind": "dev",
    "methods": {
      "acceptLoan(uint256)": {
        "details": "Allow the contract owner to accept a loan, transfers funds to the borrower if so"
      },
      "denyLoan(uint256)": {
        "details": "Allow the contract owner to deny a loan"
      },
      "fundContract()": {
        "details": "Can be called to fund the contract by providing value in the transaction"
      },
      "getContractFunds(uint256)": {
        "details": "Can be called to retrieve funds from the contract to the owner"
      },
      "repayLoan(uint256)": {
        "details": "Can be called by a borrower to repay its lend. Borrower must provide funds when calling this function."
      },
      "requestLoan(uint256)": {
        "details": "Allow someone to request a loan"
      }
    },
    "title": "Lender",
    "version": 1
  },
  "userdoc": {
    "kind": "user",
    "methods": {},
    "version": 1
  }
}